{
  "address": "0x5FbDB2315678afecb367f032d93F642f64180aa3",
  "abi": [
    {
      "anonymous": false,
      "inputs": [
        {
          "indexed": false,
          "internalType": "address[]",
          "name": "owners",
          "type": "address[]"
        },
        {
          "indexed": false,
          "internalType": "uint256",
          "name": "signaturesRequired",
          "type": "uint256"
        },
        {
          "indexed": false,
          "internalType": "address",
          "name": "walletAddress",
          "type": "address"
        }
      ],
      "name": "WalletCreated",
      "type": "event"
    },
    {
      "inputs": [
        {
          "internalType": "address[]",
          "name": "owners",
          "type": "address[]"
        },
        {
          "internalType": "uint256",
          "name": "signaturesRequired",
          "type": "uint256"
        }
      ],
      "name": "createNewWallet",
      "outputs": [
        {
          "internalType": "contract MultiSigWallet",
          "name": "",
          "type": "address"
        }
      ],
      "stateMutability": "nonpayable",
      "type": "function"
    }
  ],
  "transactionHash": "0x887f002dd4f2a87073f45498481bb9021fcaa6510a86efd9270d0e0c9565e256",
  "args": [],
  "numDeployments": 1,
  "solcInputHash": "5941e0c68e0b75479232cae20fcececd",
  "bytecode": "0x608060405234801561001057600080fd5b50610e31806100206000396000f3fe608060405234801561001057600080fd5b506004361061002b5760003560e01c8063cebac5e314610030575b600080fd5b61004a600480360381019061004591906103e9565b610060565b60405161005791906104a4565b60405180910390f35b600060405161006e906101db565b604051809103906000f08015801561008a573d6000803e3d6000fd5b506000806101000a81548173ffffffffffffffffffffffffffffffffffffffff021916908373ffffffffffffffffffffffffffffffffffffffff16021790555060008054906101000a900473ffffffffffffffffffffffffffffffffffffffff1673ffffffffffffffffffffffffffffffffffffffff16633e1a771d84846040518363ffffffff1660e01b815260040161012592919061058c565b600060405180830381600087803b15801561013f57600080fd5b505af1158015610153573d6000803e3d6000fd5b505050507fbbd4b92b4495c03729b79b840ab3161ba60eac1305f58ae8569e6b21d03fbb03838360008054906101000a900473ffffffffffffffffffffffffffffffffffffffff166040516101aa939291906105cb565b60405180910390a160008054906101000a900473ffffffffffffffffffffffffffffffffffffffff16905092915050565b6107f28061060a83390190565b6000604051905090565b600080fd5b600080fd5b600080fd5b6000601f19601f8301169050919050565b7f4e487b7100000000000000000000000000000000000000000000000000000000600052604160045260246000fd5b61024a82610201565b810181811067ffffffffffffffff8211171561026957610268610212565b5b80604052505050565b600061027c6101e8565b90506102888282610241565b919050565b600067ffffffffffffffff8211156102a8576102a7610212565b5b602082029050602081019050919050565b600080fd5b600073ffffffffffffffffffffffffffffffffffffffff82169050919050565b60006102e9826102be565b9050919050565b6102f9816102de565b811461030457600080fd5b50565b600081359050610316816102f0565b92915050565b600061032f61032a8461028d565b610272565b90508083825260208201905060208402830185811115610352576103516102b9565b5b835b8181101561037b57806103678882610307565b845260208401935050602081019050610354565b5050509392505050565b600082601f83011261039a576103996101fc565b5b81356103aa84826020860161031c565b91505092915050565b6000819050919050565b6103c6816103b3565b81146103d157600080fd5b50565b6000813590506103e3816103bd565b92915050565b60008060408385031215610400576103ff6101f2565b5b600083013567ffffffffffffffff81111561041e5761041d6101f7565b5b61042a85828601610385565b925050602061043b858286016103d4565b9150509250929050565b6000819050919050565b600061046a610465610460846102be565b610445565b6102be565b9050919050565b600061047c8261044f565b9050919050565b600061048e82610471565b9050919050565b61049e81610483565b82525050565b60006020820190506104b96000830184610495565b92915050565b600081519050919050565b600082825260208201905092915050565b6000819050602082019050919050565b6104f4816102de565b82525050565b600061050683836104eb565b60208301905092915050565b6000602082019050919050565b600061052a826104bf565b61053481856104ca565b935061053f836104db565b8060005b8381101561057057815161055788826104fa565b975061056283610512565b925050600181019050610543565b5085935050505092915050565b610586816103b3565b82525050565b600060408201905081810360008301526105a6818561051f565b90506105b5602083018461057d565b9392505050565b6105c5816102de565b82525050565b600060608201905081810360008301526105e5818661051f565b90506105f4602083018561057d565b61060160408301846105bc565b94935050505056fe608060405234801561001057600080fd5b506107d2806100206000396000f3fe608060405234801561001057600080fd5b50600436106100415760003560e01c8063025e7c27146100465780633e1a771d14610076578063ce757d2914610092575b600080fd5b610060600480360381019061005b919061035e565b6100b0565b60405161006d91906103cc565b60405180910390f35b610090600480360381019061008b919061056c565b6100ef565b005b61009a610272565b6040516100a791906105d7565b60405180910390f35b600181815481106100c057600080fd5b906000526020600020016000915054906101000a900473ffffffffffffffffffffffffffffffffffffffff1681565b6001825111610133576040517f08c379a000000000000000000000000000000000000000000000000000000000815260040161012a9061064f565b60405180910390fd5b600081118015610144575081518111155b610183576040517f08c379a000000000000000000000000000000000000000000000000000000000815260040161017a906106e1565b60405180910390fd5b6001151561019083610278565b1515146101d2576040517f08c379a00000000000000000000000000000000000000000000000000000000081526004016101c99061074d565b60405180910390fd5b8060028190555060005b825181101561026d5760018382815181106101fa576101f961076d565b5b60200260200101519080600181540180825580915050600190039060005260206000200160009091909190916101000a81548173ffffffffffffffffffffffffffffffffffffffff021916908373ffffffffffffffffffffffffffffffffffffffff1602179055508060010190506101dc565b505050565b60025481565b600080600090505b82518110156103095760008084838151811061029f5761029e61076d565b5b602002602001015173ffffffffffffffffffffffffffffffffffffffff1673ffffffffffffffffffffffffffffffffffffffff16815260200190815260200160002060009054906101000a900460ff16156102fe57600091505061030f565b806001019050610280565b50600190505b919050565b6000604051905090565b600080fd5b600080fd5b6000819050919050565b61033b81610328565b811461034657600080fd5b50565b60008135905061035881610332565b92915050565b6000602082840312156103745761037361031e565b5b600061038284828501610349565b91505092915050565b600073ffffffffffffffffffffffffffffffffffffffff82169050919050565b60006103b68261038b565b9050919050565b6103c6816103ab565b82525050565b60006020820190506103e160008301846103bd565b92915050565b600080fd5b6000601f19601f8301169050919050565b7f4e487b7100000000000000000000000000000000000000000000000000000000600052604160045260246000fd5b610435826103ec565b810181811067ffffffffffffffff82111715610454576104536103fd565b5b80604052505050565b6000610467610314565b9050610473828261042c565b919050565b600067ffffffffffffffff821115610493576104926103fd565b5b602082029050602081019050919050565b600080fd5b6104b2816103ab565b81146104bd57600080fd5b50565b6000813590506104cf816104a9565b92915050565b60006104e86104e384610478565b61045d565b9050808382526020820190506020840283018581111561050b5761050a6104a4565b5b835b81811015610534578061052088826104c0565b84526020840193505060208101905061050d565b5050509392505050565b600082601f830112610553576105526103e7565b5b81356105638482602086016104d5565b91505092915050565b600080604083850312156105835761058261031e565b5b600083013567ffffffffffffffff8111156105a1576105a0610323565b5b6105ad8582860161053e565b92505060206105be85828601610349565b9150509250929050565b6105d181610328565b82525050565b60006020820190506105ec60008301846105c8565b92915050565b600082825260208201905092915050565b7f52657175697265642061746c656173742032206f776e65727300000000000000600082015250565b60006106396019836105f2565b915061064482610603565b602082019050919050565b600060208201905081810360008301526106688161062c565b9050919050565b7f496e76616c69642076616c756520666f7220617267756d656e74205f7369676e60008201527f6174757265735265717569726564000000000000000000000000000000000000602082015250565b60006106cb602e836105f2565b91506106d68261066f565b604082019050919050565b600060208201905081810360008301526106fa816106be565b9050919050565b7f4475706c6963617465206f776e65727320617265206e6f7420616c6c6f776564600082015250565b60006107376020836105f2565b915061074282610701565b602082019050919050565b600060208201905081810360008301526107668161072a565b9050919050565b7f4e487b7100000000000000000000000000000000000000000000000000000000600052603260045260246000fdfea26469706673582212201b0ed0159cdbc9f35156ccc72f78a6cf916819d92535ef4c116dbc4abff3750064736f6c63430008180033a26469706673582212207bf64cf53c56dcdb9142d5244b333f58816efd11f8b73483c75a721b1db161ca64736f6c63430008180033",
  "devdoc": {
    "kind": "dev",
    "methods": {},
    "version": 1
  },
  "userdoc": {
    "kind": "user",
    "methods": {},
    "version": 1
  },
  "storageLayout": {
    "storage": [
      {
        "astId": 121,
        "contract": "contracts/WalletGenerator.sol:WalletGenerator",
        "label": "multiSigWallet",
        "offset": 0,
        "slot": "0",
        "type": "t_contract(MultiSigWallet)106"
      }
    ],
    "types": {
      "t_contract(MultiSigWallet)106": {
        "encoding": "inplace",
        "label": "contract MultiSigWallet",
        "numberOfBytes": "20"
      }
    }
  }
}