{
  "address": "0x03642ab89b5418B45268C44123123d84008d0799",
  "abi": [
    {
      "inputs": [],
      "stateMutability": "nonpayable",
      "type": "constructor"
    },
    {
      "inputs": [
        {
          "internalType": "address",
          "name": "",
          "type": "address"
        }
      ],
      "name": "NotOwner",
      "type": "error"
    },
    {
      "anonymous": false,
      "inputs": [
        {
          "indexed": false,
          "internalType": "address[]",
          "name": "owners",
          "type": "address[]"
        },
        {
          "indexed": false,
          "internalType": "uint256",
          "name": "signaturesRequired",
          "type": "uint256"
        },
        {
          "indexed": true,
          "internalType": "address",
          "name": "walletAddress",
          "type": "address"
        }
      ],
      "name": "WalletCreated",
      "type": "event"
    },
    {
      "inputs": [
        {
          "internalType": "address[]",
          "name": "owners",
          "type": "address[]"
        },
        {
          "internalType": "uint256",
          "name": "signaturesRequired",
          "type": "uint256"
        }
      ],
      "name": "createNewWallet",
      "outputs": [],
      "stateMutability": "nonpayable",
      "type": "function"
    },
    {
      "inputs": [],
      "name": "withdraw",
      "outputs": [],
      "stateMutability": "nonpayable",
      "type": "function"
    },
    {
      "stateMutability": "payable",
      "type": "receive"
    }
  ],
  "transactionHash": "0x4d2563b60e73536f953b508c8f6296baf9d83e3746a8c60262691a74dece76db",
  "args": [],
  "numDeployments": 1,
  "solcInputHash": "3bfb1dcff23afd31471247777f594826",
  "bytecode": "0x60a060405234801561001057600080fd5b503373ffffffffffffffffffffffffffffffffffffffff1660808173ffffffffffffffffffffffffffffffffffffffff1681525050608051610efc61005f600039600060880152610efc6000f3fe608060405260043610620000315760003560e01c80633ccfd60b146200003e578063cebac5e314620000585762000039565b366200003957005b600080fd5b3480156200004b57600080fd5b506200005662000086565b005b3480156200006557600080fd5b506200008460048036038101906200007e919062000385565b620001cf565b005b7f000000000000000000000000000000000000000000000000000000000000000073ffffffffffffffffffffffffffffffffffffffff163373ffffffffffffffffffffffffffffffffffffffff16146200011957336040517f245aecd300000000000000000000000000000000000000000000000000000000815260040162000110919062000434565b60405180910390fd5b60003373ffffffffffffffffffffffffffffffffffffffff1647604051620001419062000486565b60006040518083038185875af1925050503d806000811462000180576040519150601f19603f3d011682016040523d82523d6000602084013e62000185565b606091505b5050905080620001cc576040517f08c379a0000000000000000000000000000000000000000000000000000000008152600401620001c390620004fe565b60405180910390fd5b50565b828282604051620001e090620002c4565b620001ee9392919062000637565b604051809103906000f0801580156200020b573d6000803e3d6000fd5b506000806101000a81548173ffffffffffffffffffffffffffffffffffffffff021916908373ffffffffffffffffffffffffffffffffffffffff16021790555060008054906101000a900473ffffffffffffffffffffffffffffffffffffffff1673ffffffffffffffffffffffffffffffffffffffff167fbbd4b92b4495c03729b79b840ab3161ba60eac1305f58ae8569e6b21d03fbb03848484604051620002b79392919062000637565b60405180910390a2505050565b610859806200066e83390190565b600080fd5b600080fd5b600080fd5b600080fd5b600080fd5b60008083601f840112620003045762000303620002dc565b5b8235905067ffffffffffffffff811115620003245762000323620002e1565b5b602083019150836020820283011115620003435762000342620002e6565b5b9250929050565b6000819050919050565b6200035f816200034a565b81146200036b57600080fd5b50565b6000813590506200037f8162000354565b92915050565b600080600060408486031215620003a157620003a0620002d2565b5b600084013567ffffffffffffffff811115620003c257620003c1620002d7565b5b620003d086828701620002eb565b93509350506020620003e5868287016200036e565b9150509250925092565b600073ffffffffffffffffffffffffffffffffffffffff82169050919050565b60006200041c82620003ef565b9050919050565b6200042e816200040f565b82525050565b60006020820190506200044b600083018462000423565b92915050565b600081905092915050565b50565b60006200046e60008362000451565b91506200047b826200045c565b600082019050919050565b600062000493826200045f565b9150819050919050565b600082825260208201905092915050565b7f7769746864726177206661696c65640000000000000000000000000000000000600082015250565b6000620004e6600f836200049d565b9150620004f382620004ae565b602082019050919050565b600060208201905081810360008301526200051981620004d7565b9050919050565b600082825260208201905092915050565b6000819050919050565b62000546816200040f565b82525050565b60006200055a83836200053b565b60208301905092915050565b62000571816200040f565b81146200057d57600080fd5b50565b600081359050620005918162000566565b92915050565b6000620005a8602084018462000580565b905092915050565b6000602082019050919050565b6000620005cb838562000520565b9350620005d88262000531565b8060005b858110156200061957620005f1828462000597565b620005fd88826200054c565b97506200060a83620005b0565b925050600181019050620005dc565b5085925050509392505050565b62000631816200034a565b82525050565b6000604082019050818103600083015262000654818587620005bd565b905062000665602083018462000626565b94935050505056fe60a060405234801561001057600080fd5b50604051610859380380610859833981810160405281019061003291906104ab565b600182511161006d576040517f243487a200000000000000000000000000000000000000000000000000000000815260040160405180910390fd5b60008111801561007e575081518111155b6100b4576040517fb8cd3c0100000000000000000000000000000000000000000000000000000000815260040160405180910390fd5b6100c38261019d60201b60201c565b6100f9576040517f07df47b100000000000000000000000000000000000000000000000000000000815260040160405180910390fd5b806080818152505060005b825181101561019557600183828151811061012257610121610507565b5b60200260200101519080600181540180825580915050600190039060005260206000200160009091909190916101000a81548173ffffffffffffffffffffffffffffffffffffffff021916908373ffffffffffffffffffffffffffffffffffffffff160217905550806001019050610104565b505050610536565b600080600090505b825181101561029f576000808483815181106101c4576101c3610507565b5b602002602001015173ffffffffffffffffffffffffffffffffffffffff1673ffffffffffffffffffffffffffffffffffffffff16815260200190815260200160002060009054906101000a900460ff16156102235760009150506102a5565b600160008085848151811061023b5761023a610507565b5b602002602001015173ffffffffffffffffffffffffffffffffffffffff1673ffffffffffffffffffffffffffffffffffffffff16815260200190815260200160002060006101000a81548160ff0219169083151502179055508060010190506101a5565b50600190505b919050565b6000604051905090565b600080fd5b600080fd5b600080fd5b6000601f19601f8301169050919050565b7f4e487b7100000000000000000000000000000000000000000000000000000000600052604160045260246000fd5b61030c826102c3565b810181811067ffffffffffffffff8211171561032b5761032a6102d4565b5b80604052505050565b600061033e6102aa565b905061034a8282610303565b919050565b600067ffffffffffffffff82111561036a576103696102d4565b5b602082029050602081019050919050565b600080fd5b600073ffffffffffffffffffffffffffffffffffffffff82169050919050565b60006103ab82610380565b9050919050565b6103bb816103a0565b81146103c657600080fd5b50565b6000815190506103d8816103b2565b92915050565b60006103f16103ec8461034f565b610334565b905080838252602082019050602084028301858111156104145761041361037b565b5b835b8181101561043d578061042988826103c9565b845260208401935050602081019050610416565b5050509392505050565b600082601f83011261045c5761045b6102be565b5b815161046c8482602086016103de565b91505092915050565b6000819050919050565b61048881610475565b811461049357600080fd5b50565b6000815190506104a58161047f565b92915050565b600080604083850312156104c2576104c16102b4565b5b600083015167ffffffffffffffff8111156104e0576104df6102b9565b5b6104ec85828601610447565b92505060206104fd85828601610496565b9150509250929050565b7f4e487b7100000000000000000000000000000000000000000000000000000000600052603260045260246000fd5b608051610308610551600039600061014701526103086000f3fe6080604052600436106100385760003560e01c8063025e7c2714610094578063ce757d29146100d1578063d0e30db0146100fc5761008f565b3661008f573373ffffffffffffffffffffffffffffffffffffffff167f90890809c654f11d6e72a28fa60149770a0d11ec6c92319d6ceb2bb0a4ea1a1534476040516100859291906101d4565b60405180910390a2005b600080fd5b3480156100a057600080fd5b506100bb60048036038101906100b6919061022e565b610106565b6040516100c8919061029c565b60405180910390f35b3480156100dd57600080fd5b506100e6610145565b6040516100f391906102b7565b60405180910390f35b610104610169565b005b6001818154811061011657600080fd5b906000526020600020016000915054906101000a900473ffffffffffffffffffffffffffffffffffffffff1681565b7f000000000000000000000000000000000000000000000000000000000000000081565b3373ffffffffffffffffffffffffffffffffffffffff167f90890809c654f11d6e72a28fa60149770a0d11ec6c92319d6ceb2bb0a4ea1a1534476040516101b19291906101d4565b60405180910390a2565b6000819050919050565b6101ce816101bb565b82525050565b60006040820190506101e960008301856101c5565b6101f660208301846101c5565b9392505050565b600080fd5b61020b816101bb565b811461021657600080fd5b50565b60008135905061022881610202565b92915050565b600060208284031215610244576102436101fd565b5b600061025284828501610219565b91505092915050565b600073ffffffffffffffffffffffffffffffffffffffff82169050919050565b60006102868261025b565b9050919050565b6102968161027b565b82525050565b60006020820190506102b1600083018461028d565b92915050565b60006020820190506102cc60008301846101c5565b9291505056fea2646970667358221220a4ec2dbcc1d742ea2501c6f3bf4e21454ea7d5e3ad8548a906b82d6466f4c78d64736f6c63430008180033a264697066735822122006703416462c535917748b6f0029fa6e7d67bfad15b82d56ce42625b3c1615a464736f6c63430008180033",
  "devdoc": {
    "kind": "dev",
    "methods": {},
    "version": 1
  },
  "userdoc": {
    "kind": "user",
    "methods": {},
    "version": 1
  },
  "storageLayout": {
    "storage": [
      {
        "astId": 182,
        "contract": "contracts/WalletGenerator.sol:WalletGenerator",
        "label": "multiSigWallet",
        "offset": 0,
        "slot": "0",
        "type": "t_contract(MultiSigWallet)165"
      }
    ],
    "types": {
      "t_contract(MultiSigWallet)165": {
        "encoding": "inplace",
        "label": "contract MultiSigWallet",
        "numberOfBytes": "20"
      }
    }
  }
}