{
  "address": "0x0ab1D39Fa64d117EcDfd969F253B3f200662FACe",
  "abi": [
    {
      "anonymous": false,
      "inputs": [
        {
          "indexed": false,
          "internalType": "address[]",
          "name": "owners",
          "type": "address[]"
        },
        {
          "indexed": false,
          "internalType": "uint256",
          "name": "signaturesRequired",
          "type": "uint256"
        },
        {
          "indexed": false,
          "internalType": "address",
          "name": "walletAddress",
          "type": "address"
        }
      ],
      "name": "WalletCreated",
      "type": "event"
    },
    {
      "inputs": [
        {
          "internalType": "address[]",
          "name": "owners",
          "type": "address[]"
        },
        {
          "internalType": "uint256",
          "name": "signaturesRequired",
          "type": "uint256"
        }
      ],
      "name": "createNewWallet",
      "outputs": [
        {
          "internalType": "address",
          "name": "",
          "type": "address"
        }
      ],
      "stateMutability": "nonpayable",
      "type": "function"
    }
  ],
  "transactionHash": "0x218bc3dbff92328cee52d7cc9861e1b4081d4ea1917fe96b159140d81289d542",
  "args": [],
  "numDeployments": 3,
  "solcInputHash": "efbdbafe9670650aac159cf03001d2f0",
  "bytecode": "0x608060405234801561001057600080fd5b50610daa806100206000396000f3fe60806040523480156200001157600080fd5b50600436106200002e5760003560e01c8063cebac5e31462000033575b600080fd5b6200005160048036038101906200004b919062000327565b62000069565b6040516200006091906200039e565b60405180910390f35b60008083836040516200007c90620000f0565b620000899291906200049a565b604051809103906000f080158015620000a6573d6000803e3d6000fd5b5090507fbbd4b92b4495c03729b79b840ab3161ba60eac1305f58ae8569e6b21d03fbb03848483604051620000de93929190620004ce565b60405180910390a18091505092915050565b610862806200051383390190565b6000604051905090565b600080fd5b600080fd5b600080fd5b6000601f19601f8301169050919050565b7f4e487b7100000000000000000000000000000000000000000000000000000000600052604160045260246000fd5b620001628262000117565b810181811067ffffffffffffffff8211171562000184576200018362000128565b5b80604052505050565b600062000199620000fe565b9050620001a7828262000157565b919050565b600067ffffffffffffffff821115620001ca57620001c962000128565b5b602082029050602081019050919050565b600080fd5b600073ffffffffffffffffffffffffffffffffffffffff82169050919050565b60006200020d82620001e0565b9050919050565b6200021f8162000200565b81146200022b57600080fd5b50565b6000813590506200023f8162000214565b92915050565b60006200025c6200025684620001ac565b6200018d565b90508083825260208201905060208402830185811115620002825762000281620001db565b5b835b81811015620002af57806200029a88826200022e565b84526020840193505060208101905062000284565b5050509392505050565b600082601f830112620002d157620002d062000112565b5b8135620002e384826020860162000245565b91505092915050565b6000819050919050565b6200030181620002ec565b81146200030d57600080fd5b50565b6000813590506200032181620002f6565b92915050565b6000806040838503121562000341576200034062000108565b5b600083013567ffffffffffffffff8111156200036257620003616200010d565b5b6200037085828601620002b9565b9250506020620003838582860162000310565b9150509250929050565b620003988162000200565b82525050565b6000602082019050620003b560008301846200038d565b92915050565b600081519050919050565b600082825260208201905092915050565b6000819050602082019050919050565b620003f28162000200565b82525050565b6000620004068383620003e7565b60208301905092915050565b6000602082019050919050565b60006200042c82620003bb565b620004388185620003c6565b93506200044583620003d7565b8060005b838110156200047c578151620004608882620003f8565b97506200046d8362000412565b92505060018101905062000449565b5085935050505092915050565b6200049481620002ec565b82525050565b60006040820190508181036000830152620004b681856200041f565b9050620004c7602083018462000489565b9392505050565b60006060820190508181036000830152620004ea81866200041f565b9050620004fb602083018562000489565b6200050a60408301846200038d565b94935050505056fe608060405234801561001057600080fd5b506040516108623803806108628339818101604052810190610032919061045b565b6001825111610076576040517f08c379a000000000000000000000000000000000000000000000000000000000815260040161006d90610514565b60405180910390fd5b600081118015610087575081518111155b6100c6576040517f08c379a00000000000000000000000000000000000000000000000000000000081526004016100bd906105a6565b60405180910390fd5b600115156100d9836101be60201b60201c565b15151461011b576040517f08c379a000000000000000000000000000000000000000000000000000000000815260040161011290610612565b60405180910390fd5b8060028190555060005b82518110156101b657600183828151811061014357610142610632565b5b60200260200101519080600181540180825580915050600190039060005260206000200160009091909190916101000a81548173ffffffffffffffffffffffffffffffffffffffff021916908373ffffffffffffffffffffffffffffffffffffffff160217905550806001019050610125565b505050610661565b600080600090505b825181101561024f576000808483815181106101e5576101e4610632565b5b602002602001015173ffffffffffffffffffffffffffffffffffffffff1673ffffffffffffffffffffffffffffffffffffffff16815260200190815260200160002060009054906101000a900460ff1615610244576000915050610255565b8060010190506101c6565b50600190505b919050565b6000604051905090565b600080fd5b600080fd5b600080fd5b6000601f19601f8301169050919050565b7f4e487b7100000000000000000000000000000000000000000000000000000000600052604160045260246000fd5b6102bc82610273565b810181811067ffffffffffffffff821117156102db576102da610284565b5b80604052505050565b60006102ee61025a565b90506102fa82826102b3565b919050565b600067ffffffffffffffff82111561031a57610319610284565b5b602082029050602081019050919050565b600080fd5b600073ffffffffffffffffffffffffffffffffffffffff82169050919050565b600061035b82610330565b9050919050565b61036b81610350565b811461037657600080fd5b50565b60008151905061038881610362565b92915050565b60006103a161039c846102ff565b6102e4565b905080838252602082019050602084028301858111156103c4576103c361032b565b5b835b818110156103ed57806103d98882610379565b8452602084019350506020810190506103c6565b5050509392505050565b600082601f83011261040c5761040b61026e565b5b815161041c84826020860161038e565b91505092915050565b6000819050919050565b61043881610425565b811461044357600080fd5b50565b6000815190506104558161042f565b92915050565b6000806040838503121561047257610471610264565b5b600083015167ffffffffffffffff8111156104905761048f610269565b5b61049c858286016103f7565b92505060206104ad85828601610446565b9150509250929050565b600082825260208201905092915050565b7f52657175697265642061746c656173742032206f776e65727300000000000000600082015250565b60006104fe6019836104b7565b9150610509826104c8565b602082019050919050565b6000602082019050818103600083015261052d816104f1565b9050919050565b7f496e76616c69642076616c756520666f7220617267756d656e74205f7369676e60008201527f6174757265735265717569726564000000000000000000000000000000000000602082015250565b6000610590602e836104b7565b915061059b82610534565b604082019050919050565b600060208201905081810360008301526105bf81610583565b9050919050565b7f4475706c6963617465206f776e65727320617265206e6f7420616c6c6f776564600082015250565b60006105fc6020836104b7565b9150610607826105c6565b602082019050919050565b6000602082019050818103600083015261062b816105ef565b9050919050565b7f4e487b7100000000000000000000000000000000000000000000000000000000600052603260045260246000fd5b6101f2806106706000396000f3fe608060405234801561001057600080fd5b50600436106100365760003560e01c8063025e7c271461003b578063ce757d291461006b575b600080fd5b61005560048036038101906100509190610109565b610089565b6040516100629190610177565b60405180910390f35b6100736100c8565b60405161008091906101a1565b60405180910390f35b6001818154811061009957600080fd5b906000526020600020016000915054906101000a900473ffffffffffffffffffffffffffffffffffffffff1681565b60025481565b600080fd5b6000819050919050565b6100e6816100d3565b81146100f157600080fd5b50565b600081359050610103816100dd565b92915050565b60006020828403121561011f5761011e6100ce565b5b600061012d848285016100f4565b91505092915050565b600073ffffffffffffffffffffffffffffffffffffffff82169050919050565b600061016182610136565b9050919050565b61017181610156565b82525050565b600060208201905061018c6000830184610168565b92915050565b61019b816100d3565b82525050565b60006020820190506101b66000830184610192565b9291505056fea2646970667358221220cbb3510d98b89a93112d4193a708b87d82beb049451b2fbe5a5cd8b85a29683964736f6c63430008180033a26469706673582212204503c3db62b37ffc11f627f4d238757323079d14be77ed32a16d01070ac8c4ed64736f6c63430008180033",
  "devdoc": {
    "kind": "dev",
    "methods": {},
    "version": 1
  },
  "userdoc": {
    "kind": "user",
    "methods": {},
    "version": 1
  },
  "storageLayout": {
    "storage": [],
    "types": null
  }
}